:020000040800F2
:10000000800400209D010008B7150008CF140008E7
:10001000B5150008A9020008E91700080000000053
:10002000000000000000000000000000BB150008F8
:10003000C502000800000000B9150008BD15000841
:10004000B7010008B7010008B7010008B7010008B0
:10005000B7010008B7010008B7010008B7010008A0
:10006000B7010008B7010008B7010008B701000890
:10007000B7010008B7010008B7010008B701000880
:10008000B7010008B7010008B7010008B701000870
:10009000AD020008B9020008B7010008B701000866
:1000A000B7010008B7010008B7010008B701000850
:1000B000B7010008B7010008B7010008B701000840
:1000C000B7010008B7010008B7010008B701000830
:1000D000B7010008B7010008B7010008B701000820
:1000E000B7010008B7010008B7010008B701000810
:1000F000B7010008B7010008B7010008B701000800
:10010000B7010008B7010008B7010008B7010008EF
:10011000B7010008B7010008B7010008B7010008DF
:10012000B7010008B7010008B7010008B7010008CF
:10013000B70100080000000000000000B70100083F
:10014000B7010008B7010008B7010008B7010008AF
:10015000B7010008B7010008B7010008B70100089F
:10016000B7010008B7010008B7010008B70100088F
:10017000B7010008B70100080000000000000000FF
:10018000B7010008B7010008DFF80CD000F07AF8DA
:1001900000480047ED1B0008800400200648804707
:1001A00006480047FEE7FEE7FEE7FEE7FEE7FEE75C
:1001B000FEE7FEE7FEE7FEE75516000889010008A6
:1001C0002DE9F05F0546002092469B46884606468C
:1001D000814640241BE0284641464746224600F01F
:1001E00041F853465A46C01A914110D31146184659
:1001F000224600F028F82D1A67EB01084F462246E8
:100200000120002100F01FF817EB00094E41201ECD
:10021000A4F10104DFDC484631462A464346BDE8E6
:10022000F09FD2B201E000F8012B491EFBD27047CB
:100230000022F6E710B513460A4604461946FFF7B2
:10024000F0FF204610BD202A04DB203A00FA02F11C
:10025000002070479140C2F1200320FA03F31943B4
:1002600090407047202A04DB203A21FA02F0002156
:10027000704721FA02F3D040C2F1200291400843B6
:1002800019467047064C074D06E0E06840F0010350
:1002900094E8070098471034AC42F6D3FFF778FF94
:1002A000241C0008441C0008FEE70000014800F080
:1002B0007EB9000014000020014800F078B9000069
:1002C00014000020704772B6FEE790F82020012A43
:1002D00007D0022A05D0416A41F480214162012001
:1002E0007047006842690A43426100207047F0B5D8
:1002F00090F820500468A468012D05D0022D03D089
:10030000416A41F4802153E014F0406F01D1E500CF
:100310004BD5C4F30164022C03D9416A41F40001B6
:1003200046E00125A5401D608D684FF4C0739DB166
:10033000CE6835434E6845EAC605066803EB0417E8
:10034000F5514FF4C275076805EB04150E697E512F
:10035000097D012905D009E00E88CD6845EA46559A
:10036000EBE701684E5946F480764E511179D2F888
:1003700005504FF4C67641EA0525016806EB0416E0
:100380008D511178D2F801204FF4C47541EA022151
:10039000026805EB04155151006803EB0411425843
:1003A00042F0010242500020F0BD416A41F40011C8
:1003B00041620120F0BD000010B590F82020012A14
:1003C00007D0022A05D0416A41F480214162012010
:1003D00010BD3B48D0F8002242F00102C0F80022D4
:1003E000D0F8002222F47C52C0F80022D0F800227B
:1003F0004B6A42EA0322C0F800220A7D02F01F0382
:1004000001229A40D0F81C329343C0F81C32CB69C9
:10041000B3B9D0F80C329343C0F80C328C894B68D6
:1004200064F31F434C6900EBC404C4F840320C89E8
:100430000B6864F31F434C6900EBC404C4F84432F6
:10044000CB69012B16D1D0F80C321343C0F80C3213
:100450000C884B6864F31F434C6900EBC404C4F878
:1004600040320C89CB6864F31F434C6900EBC40431
:10047000C4F844328B69002BD0F804320ED01343F9
:10048000C0F804320B69002BD0F8143208D01343A3
:10049000C0F81432096A012904D008E09343EFE759
:1004A0009343F5E7D0F81C121143C0F81C12D0F8A2
:1004B000001221F00101C0F80012002010BD000060
:1004C00000640040704730B590F82040012C05D002
:1004D000022C03D0416A41F480215DE004680029C8
:1004E00055D02469A40754D04FF4D874056804EBA0
:1004F00001142D5915F00405956005682D594ED04D
:10050000ED08556005682C5904F00204D4604FF4DE
:10051000DA74056804EB01142D5905F00F05156117
:1005200005682D59C5F30725956105682C59240CDC
:1005300054614FF4DC72046802EB0112A4581C7081
:100540000468A458240A5C700468A458240C9C70A5
:100550000468A258120EDA704FF4DE72046802EBDF
:100560000112A4581C710468A458240A5C71046820
:10057000A458240C9C710468A258120EDA71006809
:1005800081B1016941F020010161002030BDE468C2
:10059000A8E7416A41F400114162012030BD6D0DB0
:1005A0001560AFE7C16841F02001C160EDE72DE9BA
:1005B000F05F0546006800244669D0F8049087681B
:1005C000D0F80CB0D0F810A0D0F81880F10748D0BF
:1005D000F90714D001218160B80703D5284600F03F
:1005E00042FA0CE0780702D54FF4006407E03807C0
:1005F00002D54FF4805402E0284600F033FAF805A3
:1006000016D529684FF480708860B80503D5284650
:1006100000F02BFA0CE0780502D544F4005407E012
:10062000380502D544F4804402E0284600F01CFA64
:10063000F80316D529684FF480308860B80303D5D5
:10064000284600F014FA0CE0780302D544F4004484
:1006500007E0380302D544F4803402E0284600F075
:1006600005FA300707D55FEACB6004D5296810206A
:1006700044F40074C86070074FF0080707D55FEABC
:100680000B7004D52868C760284600F061F9B007F0
:1006900006D52868C068800702D0284600F05AF9BD
:1006A000700607D55FEACA6004D52968102044F4B3
:1006B00080640861B00607D55FEA0A7004D528682F
:1006C0000761284600F09EF9F00606D52868006903
:1006D000800702D0284600F096F9B00308D55FEAFB
:1006E000C96005D5296810204860284600F08CF9BB
:1006F000F00307D55FEA097004D5286847602846EB
:1007000000F0B6F9300446D55FEA497040D5F005EF
:1007100004D55FEAC87001D044F00104B00504D5E7
:100720005FEA887001D544F00204700504D55FEAE1
:10073000487001D544F00404300529D518F0700F35
:1007400026D008F07000402815D006DC102809D00B
:1007500020280AD0302816D10AE050280ED0602870
:1007600011D10EE044F008040DE044F010040AE05A
:1007700044F0200407E044F0400404E044F0800426
:1007800001E044F480742868816921F0700181617E
:10079000296804204860002C05D0686A20436862FC
:1007A0002846FFF78FFEBDE8F09F70B5040003D028
:1007B00094F8200010B104E0012070BD204600F044
:1007C00081F82068016841F00101016000F05CFAE5
:1007D0000546052604E000F057FA401B0A2811D808
:1007E00020684068C007F6D02068016821F0020147
:1007F000016000F049FA05460BE000F045FA401BA5
:100800000A2806D9606A40F40030606284F82060EB
:10081000D2E7206840688007EFD4207E0128206856
:1008200001683DD021F080010160607E01282068D0
:10083000016838D021F040010160A07E01282068C5
:10084000016833D021F020010160E07E012820689A
:1008500001682ED041F010010160207F012820683E
:10086000016829D021F008010160607F012820681B
:10087000016824D021F004010160D4E90201084399
:10088000D4E90412114308436168491E08432168F2
:10089000C86100206062012084F82000002070BD43
:1008A00041F08001C0E741F04001C5E741F020017F
:1008B000CAE721F01001CFE741F00801D4E741F089
:1008C0000401D9E710B586B0044614216846FFF745
:1008D000AFFC1C492068884231D11B4800210268C6
:1008E00042F000720260006800F000700590164847
:1008F0001038026842F001020260006800F0010056
:1009000005904FF4C05000900220CDE90101032072
:1009100003900920049069460C4800F0BDF80022BD
:100920001146142000F01EFA142000F00DFA0022E7
:100930001146152000F016FA152000F005FA06B051
:1009400010BD00000064004040380240000002403A
:1009500070470000F0B5044689B016A000F046FFCD
:1009600007AB6A4600212046FFF7ADFD00281FD1E6
:100970000498C5B2029808B1019E00E0009E16A03E
:10098000314600F033FF294615A000F02FFF002468
:1009900007AF06E03A5D214615A000F027FF641C72
:1009A000E4B2AC42F6D32A4607A9304601F0E2F899
:1009B00009B0F0BD48414C5F43414E5F52784669F3
:1009C000666F304D736750656E64696E6743616C26
:1009D0006C6261636B0D0A0069643A25780D0A0048
:1009E000446174615F4C656E3A25640D0A00000035
:1009F00052785F446174615B25645D3D25780D0A22
:100A000000000000704770477047000070B5044652
:100A100090F82000012804D0606A40F40020606251
:100A200018E0022084F820002068016821F001010C
:100A3000016000F029F905460EE000BF00F024F93E
:100A4000401B0A2808D9606A40F400306062052023
:100A500084F82000012070BD20684068C007EDD1F7
:100A6000606270BD7047704770477047704770474D
:100A70007047000070B5044600F006F90546601C9A
:100A800002D004480078044400F0FEF8401BA04265
:100A9000FAD370BD000000202DE9F84FDFF8BCA1AB
:100AA000002201250AF1040B03264FF00F090BF178
:100AB000040E00BF0B6805FA02F42340A34270D174
:100AC0000F7907F00307012F01D0022F16D1876895
:100AD0004FEA420806FA08FC27EA0C07D1F80CC0D6
:100AE0000CFA08FC4CEA070CC0F808C04768A7439A
:100AF0000C79C4F3001494403C4344600C79E44303
:100B0000A4070AD0C4684FEA420C06FA0CF7BC43AB
:100B10008F6807FA0CF72743C7600C7904F00304C9
:100B2000022C12D1D40800EB840CDCF820405707CB
:100B3000FF0E09FA07F824EA0804D1F8108008FA31
:100B400007F848EA0408CCF8208004684FEA420C11
:100B500006FA0CF7BC430F7907F0030707FA0CF706
:100B6000274307604C6814F4403F70D03C4C276822
:100B700047F480472760246822F0030704F4804488
:100B80000094384C07EB040CDCF8084897074FEA50
:100B9000177809FA08F7BC43334FB84202D100274F
:100BA00024E054E0314FB84201D101271EE0304F1C
:100BB000B84201D1022719E02E4FB84201D10327D4
:100BC00014E02D4FB84201D104270FE02B4FB8425B
:100BD00001D105270AE02A4FB84201D1062705E0D6
:100BE000284FB84201D1072700E0082707FA08F785
:100BF0002743CCF80878DAF800405746D1F804C00B
:100C00009C435FEACC3C00D51C433C60DBF80040D1
:100C10005F46D1F804C09C435FEA8C3C00D51C437E
:100C20003C60DEF800407746D1F804C09C435FEAA0
:100C3000CC2C00D51C433C60084F0C373C68D1F8E5
:100C400004C09C435FEA8C2C00D51C433C60521CC2
:100C5000102AFFF42FAFBDE8F88F0000003C0140E0
:100C600044380240003001400000024000040240CD
:100C700000080240000C0240001002400014024034
:100C800000180240001C02400148806870470000C4
:100C9000000000200248816802781144816070479A
:100CA000000000200B4810B5016841F4007101609C
:100CB000016841F480610160016841F48071016064
:100CC000032000F06FF8002000F006F800F024F890
:100CD000002010BD003C024070B50D4D04464FF49D
:100CE0007A712878B1FBF0F00A490968B1FBF0F09D
:100CF00000F00AFB48B9102C07D200222146501EF2
:100D000000F030F800206C6070BD012070BD000064
:100D1000000000200C0000200A4808B5016841F4DA
:100D200080410160006800F4804000900548001F89
:100D3000016841F080510160006800F0805000902F
:100D400008BD000044380240002809DB00F01F0203
:100D5000012191404009800000F1E020C0F800111D
:100D600070470000F0B40E4B1B680C46C3F302231F
:100D7000C3F10705042D00D90425191D072901D247
:100D8000002300E0DB1E012606FA05F1491E214082
:100D900099409E40761E16403143F0BC00F036BDAF
:100DA0000CED00E0064900F0070208684FF6FF036B
:100DB000184040EA0220034A1043086070470000D0
:100DC0000CED00E00000FA052DE9F0470E460500A5
:100DD00065D0DFF81481D8F80000F7B200F0070002
:100DE000B04207D288F80070D8F8000000F0070081
:100DF000B04254D128683D4C810712D5400703D535
:100E0000206840F4E05020602878000703D520686F
:100E100040F4604020602068A96820F0F00008439A
:100E200020602878C0072DD030496868083901282B
:100E300012D0022813D0032811D00968890700298D
:100E40002DDA216821F0030101432160FFF71CFF27
:100E5000814641F2883A0EE009688903EFE70968A4
:100E60008901ECE7FFF710FFA0EB0901514502D91A
:100E70000320BDE8F0872068696800F00C00B0EB43
:100E8000810FEFD1D8F80010404601F00701B142C0
:100E900007D90770006800F00700B04201D00120B8
:100EA000E7E72878400705D52068E96820F4E05096
:100EB000084320602878000706D52068296920F4B7
:100EC000604040EAC100206000F038F82168084A1C
:100ED000C1F30311515CC840064908600648006828
:100EE000FFF7FAFE0020C4E7003C02400838024049
:100EF0000C1C00080C0000200400002004480549D8
:100F000000680968044AC1F38221515CC8407047F7
:100F10000C000020083802401C1C00080448054949
:100F200000680968044AC1F34231515CC840704707
:100F30000C000020083802401C1C0008154810B5A1
:100F4000006810F00C02144813D04110042A0FD08E
:100F5000082A0ED10F4C241F2268236802F03F029A
:100F60005B0207D52068C0F38810A0FB010106E0F2
:100F7000084610BD2168C1F38811A1FB00010023C0
:100F8000FFF71EF92168C1F30141491C4900B0FB7C
:100F9000F1F010BD083802400024F4002DE9F84FAC
:100FA00004006ED02078DFF84C93C007A9F1040547
:100FB0004AD009F104000168C1F38101012908D078
:100FC0000068C0F3810002280AD1D9F8000040026D
:100FD00006D52868800337D560680028E1D033E063
:100FE0006068B0F5803F10D0B0F5A02F286810D011
:100FF00020F480302860286820F480202860606811
:10100000A8B1FFF741FE06460DE0286840F48030A5
:10101000F4E740F480202860F7E700BFFFF734FED4
:10102000801B642873D828688003F7D50CE0FFF78D
:101030002BFE064605E000BFFFF726FE801B642856
:10104000F0D828688003F7D42078DFF8AC828007D6
:101050004FF0000A3ED5A748001D016811F00C0FA3
:1010600008D00068C0F3810002280BD1D9F8000035
:10107000400207D42868800716D5E068012800D10F
:1010800012E033E1E068B8B10120C8F80000FFF7D2
:10109000FBFD064605E000BFFFF7F6FD801B0228BA
:1010A000C0D828688007F7D52868216920F0F800A3
:1010B00040EAC10028600DE0C8F800A0FFF7E4FD99
:1010C000064604E0FFF7E0FD801B02281FD82868D1
:1010D0008007F7D42078000722D5864F87486169BA
:1010E000703771B101210160FFF7CEFD064604E0C3
:1010F000FFF7CAFD801B022809D838688007F7D59A
:101100000EE0C0F800A0FFF7BFFD064605E082E054
:10111000FFF7BAFD801B02287DD838688007F7D416
:101120002078400768D5DFF8CCB100270BF13C0BE5
:10113000DBF80000C0000BD4DBF8001041F0805158
:10114000CBF80010DBF80000012700F08050009081
:101150006B4E3068C00510D4306840F48070306049
:10116000FFF792FD009005E0FFF78EFD0099401A11
:10117000022850D83068C005F6D55E4EA0686C369F
:1011800001280FD00528306810D020F00100306011
:10119000306820F004003060A068B8B1FFF774FD3B
:1011A00000900FE0306840F00100F4E740F00400E8
:1011B0003060F7E7FFF768FD0099411A41F2883087
:1011C000814266D830688007F4D50EE0FFF75CFDF9
:1011D000009007E0FFF758FD0099411A41F288306E
:1011E000814256D830688007F4D42FB1DBF8001064
:1011F00021F08051CBF80010A069C8B33D49091D0A
:101200000968C1F3810102294AD00228504607D05B
:10121000C8F8600000E03CE0FFF736FD04463BE024
:101220004746C8F86000FFF72FFD064605E000BFFF
:10123000FFF72AFD801B02282BD828688001F7D4ED
:10124000D4E907010843A16A2E4A490802EB01418B
:10125000626A41EA8211084394F82C1040EA016165
:10126000C9F8001001203866FFF70EFD044606E0BD
:101270003EE000BFFFF708FD001B022809D82868E0
:101280008001F7D534E000BFFFF7FEFC001B022809
:1012900002D90320BDE8F88F28688001F4D427E044
:1012A0000128F7D0D9F80000E26900F480019142EA
:1012B0001CD1226A00F03F01914217D147F6C0715C
:1012C000626A0140B1EB821F10D1A26A4FF0FF3376
:1012D00000F4403103EB5202B1EB024F06D194F817
:1012E0002C1000F07060B0EB016F01D00120D1E74D
:1012F0000020CFE70438024000004742800E4742FA
:10130000007000400000FFFF10B5401EB0F1807F6C
:1013100001D3012010BD4FF0E02460610F21601760
:1013200000F074FA0020A06107202061002010BDA9
:1013300070B5040004D094F83D00002510B106E01B
:10134000012070BD84F83C50204600F023F8242092
:1013500084F83D002068C16821F40051C160204636
:1013600000F080F92068016921F490410161206852
:10137000416921F02A0141612068C16841F40051AE
:10138000C1602564202084F83D0084F83E000020E0
:1013900070BD0000F0B587B0044614216846FEF722
:1013A00047FF1A49206888422DD11948016841F445
:1013B00080110160006800F4801005901448103816
:1013C000016841F004010160016801F00401059128
:1013D000016841F0080101600068022400F0080083
:1013E00005904FF480500125032608278DE8F10071
:1013F00069460848FFF750FB04208DE8F100694674
:101400000548FFF749FB07B0F0BD00000050004061
:101410004038024000080240000C02402DE9F84329
:10142000044690F83D001F4616460D4620284CD134
:10143000C5B1BEB194F83C00012846D0012084F823
:101440003C004FF00008C4F84080212084F83D00A3
:10145000FFF71AFCA6848146E684A068B0F5805F99
:1014600003D004E00120BDE8F883206928B12E46AE
:101470005FF0000584F83C800EE00026FAE780214A
:10148000204600F075F9A0B9AEB116F8010B21683D
:101490004860E08C401EE084E08C4B464FF0000238
:1014A00000970028EBD14FF04001204600F060F992
:1014B00030B10320D7E735F8020BC0F30800E6E7A8
:1014C000202084F83D000020CDE70220CBE7FEE796
:1014D0001FB51A4818494FF4403201600A21416093
:1014E00000218160C0E903124FF4001242610176CD
:1014F00041768176C17601774177FFF756F908B1D9
:10150000FEF7E1FE02203F24CDE9004000216846BD
:1015100000F008FB0394012102A8029400F002FBF2
:101520000648FFF773FA02210448FEF7CEFE0028B2
:1015300001D0FEF7C8FE1FBD00640040140000206B
:101540000D4808B5016841F001010160016801F032
:1015500001010091016841F004010160016801F09E
:1015600004010091016841F008010160006800F089
:101570000800009008BD0000303802400C4810B54B
:101580000A4901604FF4E1314160002181600C2281
:10159000C160C0E904128161C161FFF7C9FE002882
:1015A00003D0BDE81040FEF78EBE10BD00500040D5
:1015B0003C000020FEE7FEE770477047FFF76ABB7C
:1015C00030B593B030216846FEF732FE14210CA8E6
:1015D000FEF72EFE1D480025016841F08051016094
:1015E000006800F0805011901948016841F4804172
:1015F00001600068022400F48040119001200390F3
:1016000010200490009406940820CDE90750A020F3
:10161000CDE9090404200B906846FFF7BFFC08B130
:1016200072B6FEE70CA90F2081E831004FF4A050FC
:101630000F904FF48050109005210CA8FFF7C4FBC9
:10164000002801D072B6FEE713B030BD403802402A
:10165000007000400248016841F470010160704769
:1016600088ED00E070B5044600680169E26821F485
:101670004051114301612169A068E2690843616931
:10168000114308432168CA6849F20C639A43024334
:10169000CA6020684169A26921F440711143416127
:1016A00031492068884202D03049884202D1FFF790
:1016B00035FC01E0FFF722FCE269002319216425D3
:1016C0003226B2F5004F626828D0A0FB0101930FCB
:1016D0009200FEF775FD0146B0FBF5F06FF01802C1
:1016E000504301EB800006EB0010B0FBF5F000F07A
:1016F000F002B1FBF5F002EB0012B1FBF5F06FF078
:101700001803584301EB800006EB0010B0FBF5F026
:1017100000F00F0021681044886070BDA0FB01013B
:1017200092185B41FEF74CFD0146B0FBF5F002015B
:10173000B1FBF5F06FF01803584301EB800006EBA6
:10174000C000B0FBF5F000F0F80002EB4002B1FB86
:10175000F5F0584301EB800006EBC000B0FBF5F05C
:1017600000F00700D6E7000000100140001401401F
:101770002DE9F041984617460E460446069D27E09F
:10178000681C25D02DB1FFF77FFAA0EB0800A84216
:101790001ED920680C3050E8001F21F4D07140E8B9
:1017A0000012002AF5D12068143050E8001F21F003
:1017B000010140E80012002AF5D1202084F83D0004
:1017C00084F83E00002084F83C000320BDE8F0814E
:1017D0002068006836EA000004D00020B842CFD06C
:1017E0000020F3E70120F9E7FEE700000FB4054B06
:1017F00010B503A9044A029800F028F810BC5DF85F
:1018000014FB00000D1B0008100000200907090E42
:10181000002804DB00F1E02080F80014704700F09D
:101820000F0000F1E02080F8141D704702E008C8A6
:10183000121F08C1002AFAD170477047002001E04A
:1018400001C1121F002AFBD1704700002DE9FF4F94
:101850008DB09B460F460446002606E025280BD097
:101860005A460F999047641C761C20780028F5D1C1
:1018700011B03046BDE8F08F0025A84601229849F6
:1018800000E0054314F8013F203B02FA03F0084250
:10189000F7D120782E2817D114F8010F45F0040550
:1018A0002A280ED06FF02F022078A0F130010929EC
:1018B0000AD808EB880102EB410100EB0108641C27
:1018C000F2E757F8048B641C20786C280DD004DCF8
:1018D0004C2812D06A2811D104E074280DD07A283F
:1018E0000CD10AE045F4001507E0617845F4801555
:1018F000814202D1641C05F58015641C2278692A96
:1019000045D008DC002AB3D0582A69D0632A10D009
:10191000642A08D13BE0702A67D0732A13D0752A55
:101920005CD0782A5CD010465A460F999047761CB6
:10193000D3E017F8040B8DF8000000208DF80100AB
:10194000E946012003E057F8049B4FF0FF30690798
:101950004FF0000501D40AE06D1C45450DDA8542C3
:10196000FADB19F805100029F6D106E06D1C854256
:10197000FCDB19F805100029F8D12E4404E019F811
:10198000010B5A460F9990476D1EF8D2A5E00A2028
:101990000021CDE90801C5F3025002280DD001CF86
:1019A000C117031E71F100030DDA4FF0000CD0EBEC
:1019B0000C006CEB01012D2308E0FF1D27F0070749
:1019C000F7E80201EDE72B0504D52B238DF828302D
:1019D00001233BE0EB0739D02023F7E70A2000E0A2
:1019E00010200021CDE9080107E01020002145F07A
:1019F0000405CDE908014FF00808C5F3025002289C
:101A00000FD001CF00214FF0000A2B071FD5702AFD
:101A10000DD0DDE908C38CF0100C5CEA030C0CD08F
:101A200015E0FF1D27F00707F7E80201EBE740226A
:101A30008DF828204FF0010A0BE050EA010306D090
:101A400030238DF828308DF8292002239A46582A11
:101A500004D024A20DF120090B9209E026A2F9E797
:101A6000DDE90823FEF7ACFB0B9B9B5C09F8013D0D
:101A700050EA0102F4D1ADEB09002030089068076C
:101A800001D44FF001080899884502DDA8EB010058
:101A900000E000208046002506E00AA85A46405D86
:101AA0000F9990476D1C761C5545F6DB04E03020FD
:101AB0005A460F999047761CB8F10001A8F1010829
:101AC000F5DC05E019F8010B5A460F999047761C92
:101AD0000899481E08900029F4DC641CC5E6000043
:101AE00009280100303132333435363738396162F4
:101AF00063646566000000003031323334353637B8
:101B000038394142434445460000000013B54FF6C2
:101B1000FF73012269460248FFF780FC00981CBD54
:101B20003C00002010B58AB0012200230792CDE9C5
:101B300005134168C1F34F3100914468042101EB62
:101B4000C4040194046801EBC404240C02940088CA
:101B5000089201EBC00080B2CDE903036946044856
:101B6000FEF72AFC08B1FEF7AEFB0AB0002010BD5C
:101B70001400002030B587B0144C0190042002906E
:101B80000020CDE9030220680D46806840011AD587
:101B90000A46012369462046FEF7A9FB80B120686A
:101BA000806800010CD502232A4669462046FEF7CC
:101BB0009EFB10B1012007B030BD05A0FFF716FE57
:101BC00007A0FFF713FE0020F5E700001400002037
:101BD000D3CACFE431B7A2CBCDB3C9B9A6000000B8
:101BE000D3CACFE430CBCDB3C9B9A600FFF75AF8BA
:101BF000FFF7E6FCFFF7A4FCFFF76AFCFFF7BEFC6B
:101C00004FF4FA742046FEF735FFFBE700000000B2
:101C1000000000000102030406070809000000009C
:101C200001020304441C000800000020140000000E
:101C30002C180008581C0008140000206C04000038
:101C40003C18000801000000100000000000000027
:081C50000024F4000000000074
:040000050800018965
:00000001FF
