:020000040800F2
:10000000602B00209D010008271600083B15000802
:1000100025160008CD020008651800080000000041
:100020000000000000000000000000002B16000887
:10003000E902000800000000291600082D1600083B
:10004000B7010008B7010008B7010008B7010008B0
:10005000B7010008B7010008B7010008B7010008A0
:10006000B7010008B7010008B7010008B701000890
:10007000B7010008B7010008B7010008B701000880
:10008000B7010008B7010008B7010008B701000870
:10009000D1020008DD020008B7010008B70100081E
:1000A000B7010008B7010008B7010008B701000850
:1000B000B7010008B7010008B7010008B701000840
:1000C000B7010008B7010008B7010008B701000830
:1000D000B7010008B7010008B7010008B701000820
:1000E000B7010008B7010008B7010008B701000810
:1000F000B7010008B7010008B7010008B701000800
:10010000B7010008B7010008B7010008B7010008EF
:10011000B7010008B7010008B7010008B7010008DF
:10012000B7010008B7010008B7010008B7010008CF
:10013000B70100080000000000000000B70100083F
:10014000B7010008B7010008B7010008B7010008AF
:10015000B7010008B7010008B7010008B70100089F
:10016000B7010008B7010008B7010008B70100088F
:10017000B7010008B70100080000000000000000FF
:10018000B7010008B7010008DFF80CD000F08CF8C8
:1001900000480047C5280008602B0020064880471B
:1001A00006480047FEE7FEE7FEE7FEE7FEE7FEE75C
:1001B000FEE7FEE7FEE7FEE7C51600088901000836
:1001C0002DE9F05F0546002092469B46884606468C
:1001D000814640241BE0284641464746224600F01F
:1001E00053F853465A46C01A914110D31146184647
:1001F000224600F03AF82D1A67EB01084F462246D6
:100200000120002100F031F817EB00094E41201EBB
:10021000A4F10104DFDC484631462A464346BDE8E6
:10022000F09F40EA01039B0703D009E008C9121FB1
:1002300008C0042AFAD203E011F8013B00F8013BA0
:10024000521EF9D27047D2B201E000F8012B491ECC
:10025000FBD270470022F6E710B513460A46044663
:100260001946FFF7F0FF204610BD202A04DB203A94
:1002700000FA02F1002070479140C2F1200320FAF9
:1002800003F3194390407047202A04DB203A21FAF7
:1002900002F00021704721FA02F3D040C2F120029F
:1002A0009140084319467047064C074D06E0E06848
:1002B00040F0010394E8070098471034AC42F6D3AD
:1002C000FFF766FF2029000840290008FEE700002C
:1002D000014800F092B9000024000020014800F01D
:1002E0008CB9000024000020704772B6FEE790F839
:1002F0002020012A07D0022A05D0416A41F480213A
:10030000416201207047006842690A43426100204F
:100310007047F0B590F820500468A468012D05D00E
:10032000022D03D0416A41F4802153E014F0406F64
:1003300001D1E5004BD5C4F30164022C03D9416A15
:1003400041F4000146E00125A5401D608D684FF491
:10035000C0739DB1CE6835434E6845EAC605066850
:1003600003EB0417F5514FF4C275076805EB04154C
:100370000E697E51097D012905D009E00E88CD68FE
:1003800045EA4655EBE701684E5946F480764E51F2
:100390001179D2F805504FF4C67641EA0525016877
:1003A00006EB04168D511178D2F801204FF4C47574
:1003B00041EA0221026805EB04155151006803EB84
:1003C0000411425842F0010242500020F0BD416A3F
:1003D00041F4001141620120F0BD000010B590F819
:1003E0002020012A07D0022A05D0416A41F4802149
:1003F0004162012010BD3B48D0F8002242F00102CA
:10040000C0F80022D0F8002222F47C52C0F800226A
:10041000D0F800224B6A42EA0322C0F800220A7D8B
:1004200002F01F0301229A40D0F81C329343C0F817
:100430001C32CB69B3B9D0F80C329343C0F80C32FC
:100440008C894B6864F31F434C6900EBC404C4F807
:1004500040320C890B6864F31F434C6900EBC40401
:10046000C4F84432CB69012B16D1D0F80C321343B7
:10047000C0F80C320C884B6864F31F434C6900EBE6
:10048000C404C4F840320C89CB6864F31F434C6940
:1004900000EBC404C4F844328B69002BD0F804325A
:1004A0000ED01343C0F804320B69002BD0F814327D
:1004B00008D01343C0F81432096A012904D008E0B7
:1004C0009343EFE79343F5E7D0F81C121143C0F8CC
:1004D0001C12D0F8001221F00101C0F80012002017
:1004E00010BD0000006400407047406A704730B59E
:1004F00090F82040012C05D0022C03D0416A41F431
:1005000080215DE00468002955D02469A40754D0F7
:100510004FF4D874056804EB01142D5915F0040547
:10052000956005682D594ED0ED08556005682C5929
:1005300004F00204D4604FF4DA74056804EB01148B
:100540002D5905F00F05156105682D59C5F30725CF
:10055000956105682C59240C54614FF4DC720468D1
:1005600002EB0112A4581C700468A458240A5C70A1
:100570000468A458240C9C700468A258120EDA7007
:100580004FF4DE72046802EB0112A4581C71046877
:10059000A458240A5C710468A458240C9C71046853
:1005A000A258120EDA71006881B1016941F0200190
:1005B0000161002030BDE468A8E7416A41F4001100
:1005C0004162012030BD6D0D1560AFE7C16841F09B
:1005D0002001C160EDE7014690F82000012801D01C
:1005E000022804D109684A68920701D5042070479F
:1005F00009688907FBD5032070472DE9F05F0546A0
:10060000006800244669D0F804908768D0F80CB0E0
:10061000D0F810A0D0F81880F10748D0F90714D00E
:1006200001218160B80703D5284600F052FA0CE09A
:10063000780702D54FF4006407E0380702D54FF47D
:10064000805402E0284600F043FAF80516D52968E0
:100650004FF480708860B80503D5284600F03BFA57
:100660000CE0780502D544F4005407E0380502D5C3
:1006700044F4804402E0284600F02CFAF80316D532
:1006800029684FF480308860B80303D5284600F00D
:1006900024FA0CE0780302D544F4004407E0380360
:1006A00002D544F4803402E0284600F015FA300701
:1006B00007D55FEACB6004D52968102044F40074A4
:1006C000C86070074FF0080707D55FEA0B7004D5C4
:1006D0002868C760284600F072F9B00706D5286878
:1006E000C068800702D0284600F06AF9700607D576
:1006F0005FEACA6004D52968102044F48064086168
:10070000B00607D55FEA0A7004D528680761284655
:1007100000F0AEF9F00606D528680069800702D01F
:10072000284600F0A6F9B00308D55FEAC96005D5F0
:10073000296810204860284600F09CF9F00307D58E
:100740005FEA097004D528684760284600F0C6F9BA
:10075000300446D55FEA497040D5F00504D55FEA1C
:10076000C87001D044F00104B00504D55FEA887078
:1007700001D544F00204700504D55FEA487001D544
:1007800044F00404300529D518F0700F26D008F085
:100790007000402815D006DC102809D020280AD087
:1007A000302816D10AE050280ED0602811D10EE072
:1007B00044F008040DE044F010040AE044F0200482
:1007C00007E044F0400404E044F0800401E044F415
:1007D00080742868816921F0700181612968042092
:1007E0004860002C05D0686A204368622846FFF7FD
:1007F0007BFEBDE8F09F70B5040003D094F82000A4
:1008000010B104E0012070BD204600F081F820689E
:10081000016841F00101016000F06CFA054605260F
:1008200004E000F067FA401B0A2811D820684068ED
:10083000C007F6D02068016821F00201016000F0D5
:1008400059FA05460BE000F055FA401B0A2806D974
:10085000606A40F40030606284F82060D2E720686B
:1008600040688007EFD4207E0128206801683DD0D1
:1008700021F080010160607E01282068016838D085
:1008800021F040010160A07E01282068016833D07A
:1008900021F020010160E07E0128206801682ED04F
:1008A00041F010010160207F01282068016829D0F3
:1008B00021F008010160607F01282068016824D0D0
:1008C00021F004010160D4E902010843D4E90412D3
:1008D000114308436168491E08432168C86100202C
:1008E0006062012084F82000002070BD41F080018A
:1008F000C0E741F04001C5E741F02001CAE721F01F
:100900001001CFE741F00801D4E741F00401D9E735
:1009100010B586B0044614216846FFF79BFC1C49BD
:100920002068884231D11B480021026842F00072E1
:100930000260006800F000700590164810380268E8
:1009400042F001020260006800F0010005904FF4DF
:10095000C05000900220CDE901010320039009203E
:10096000049069460C4800F0CDF80022114614208E
:1009700000F02EFA142000F01DFA00221146152076
:1009800000F026FA152000F015FA06B010BD0000A0
:1009900000640040403802400000024090F82020EF
:1009A0000021012A08D0022A06D0416A41F48021A0
:1009B000416201210846704700224262FAE770470F
:1009C000F0B5044689B016A000F04EFF07AB6A46AA
:1009D00000212046FFF78BFD00281FD10498C5B2E7
:1009E000029808B1019E00E0009E16A0314600F07A
:1009F0003BFF294615A000F037FF002407AF06E0B3
:100A00003A5D214615A000F02FFF641CE4B2AC4211
:100A1000F6D32A4607A9304601F0D2FC09B0F0BD52
:100A200048414C5F43414E5F52784669666F304D96
:100A3000736750656E64696E6743616C6C62616375
:100A40006B0D0A0069643A25780D0A0044617461EF
:100A50005F4C656E3A25640D0A00000052785F44D1
:100A60006174615B25645D3D25780D0A000000001E
:100A7000704770477047000070B5044690F820003A
:100A8000012804D0606A40F40020606218E002206F
:100A900084F820002068016821F00101016000F065
:100AA00029F905460EE000BF00F024F9401B0A2892
:100AB00008D9606A40F400306062052084F82000A4
:100AC000012070BD20684068C007EDD1606270BD34
:100AD0007047704770477047704770477047000015
:100AE00070B5044600F006F90546601C02D00448C3
:100AF0000078044400F0FEF8401BA042FAD370BD19
:100B0000000000202DE9F84FDFF8BCA100220125EC
:100B10000AF1040B03264FF00F090BF1040E00BF7E
:100B20000B6805FA02F42340A34270D10F7907F055
:100B30000307012F01D0022F16D187684FEA420820
:100B400006FA08FC27EA0C07D1F80CC00CFA08FCDE
:100B50004CEA070CC0F808C04768A7430C79C4F3F7
:100B6000001494403C4344600C79E443A4070AD049
:100B7000C4684FEA420C06FA0CF7BC438F6807FAC8
:100B80000CF72743C7600C7904F00304022C12D140
:100B9000D40800EB840CDCF820405707FF0E09FA5C
:100BA00007F824EA0804D1F8108008FA07F848EAA0
:100BB0000408CCF8208004684FEA420C06FA0CF7CF
:100BC000BC430F7907F0030707FA0CF727430760C8
:100BD0004C6814F4403F70D03C4C276847F4804781
:100BE0002760246822F0030704F480440094384C02
:100BF00007EB040CDCF8084897074FEA177809FA66
:100C000008F7BC43334FB84202D1002724E054E038
:100C1000314FB84201D101271EE0304FB84201D117
:100C2000022719E02E4FB84201D1032714E02D4FBF
:100C3000B84201D104270FE02B4FB84201D105275C
:100C40000AE02A4FB84201D1062705E0284FB842F2
:100C500001D1072700E0082707FA08F72743CCF857
:100C60000878DAF800405746D1F804C09C435FEAA0
:100C7000CC3C00D51C433C60DBF800405F46D1F81B
:100C800004C09C435FEA8C3C00D51C433C60DEF80A
:100C900000407746D1F804C09C435FEACC2C00D5D5
:100CA0001C433C60084F0C373C68D1F804C09C439F
:100CB0005FEA8C2C00D51C433C60521C102AFFF4C8
:100CC0002FAFBDE8F88F0000003C014044380240DF
:100CD00000300140000002400004024000080240D1
:100CE000000C0240001002400014024000180240B4
:100CF000001C02400148806870470000000000208E
:100D00000248816802781144816070470000002029
:100D10000B4810B5016841F400710160016841F4AD
:100D200080610160016841F480710160032000F07E
:100D30006FF8002000F006F800F024F8002010BD45
:100D4000003C024070B50D4D04464FF47A7128788E
:100D5000B1FBF0F00A490968B1FBF0F000F00AFBC2
:100D600048B9102C07D200222146501E00F030F85E
:100D700000206C6070BD012070BD000000000020EC
:100D80000C0000200A4808B5016841F48041016068
:100D9000006800F4804000900548001F016841F0A1
:100DA00080510160006800F08050009008BD000094
:100DB00044380240002809DB00F01F020121914065
:100DC0004009800000F1E020C0F8001170470000E9
:100DD000F0B40E4B1B680C46C3F30223C3F10705A6
:100DE000042D00D90425191D072901D2002300E094
:100DF000DB1E012606FA05F1491E214099409E405E
:100E0000761E16403143F0BC00F03EBD0CED00E014
:100E1000064900F0070208684FF6FF03184040EA51
:100E20000220034A10430860704700000CED00E008
:100E30000000FA052DE9F0470E46050065D0DFF801
:100E40001481D8F80000F7B200F00700B04207D2D2
:100E500088F80070D8F8000000F00700B04254D1C4
:100E600028683D4C810712D5400703D5206840F41F
:100E7000E05020602878000703D5206840F46040E7
:100E800020602068A96820F0F000084320602878DE
:100E9000C0072DD0304968680839012812D00228CF
:100EA00013D0032811D00968890700292DDA216899
:100EB00021F0030101432160FFF71CFF814641F24D
:100EC000883A0EE009688903EFE709688901ECE7D1
:100ED000FFF710FFA0EB0901514502D90320BDE83F
:100EE000F0872068696800F00C00B0EB810FEFD14B
:100EF000D8F80010404601F00701B14207D9077049
:100F0000006800F00700B04201D00120E7E7287830
:100F1000400705D52068E96820F4E05008432060C8
:100F20002878000706D52068296920F4604040EA47
:100F3000C100206000F038F82168084AC1F30311AD
:100F4000515CC8400649086006480068FFF7FAFE91
:100F50000020C4E7003C024008380240082900088D
:100F60000C000020040000200448054900680968BE
:100F7000044AC1F38221515CC84070470C00002034
:100F80000838024018290008044805490068096823
:100F9000044AC1F34231515CC84070470C00002044
:100FA0000838024018290008154810B5006810F0EC
:100FB0000C02144813D04110042A0FD0082A0ED175
:100FC0000F4C241F2268236802F03F025B0207D502
:100FD0002068C0F38810A0FB010106E0084610BDA0
:100FE0002168C1F38811A1FB00010023FFF7E8F895
:100FF0002168C1F30141491C4900B0FBF1F010BD6B
:10100000083802400024F4002DE9F84F04006ED0A7
:101010002078DFF84C93C007A9F104054AD009F104
:1010200004000168C1F38101012908D00068C0F300
:10103000810002280AD1D9F80000400206D52868AC
:10104000800337D560680028E1D033E06068B0F5F0
:10105000803F10D0B0F5A02F286810D020F4803049
:101060002860286820F4802028606068A8B1FFF715
:1010700041FE06460DE0286840F48030F4E740F475
:1010800080202860F7E700BFFFF734FE801B64284C
:1010900073D828688003F7D50CE0FFF72BFE0646CF
:1010A00005E000BFFFF726FE801B6428F0D8286803
:1010B0008003F7D42078DFF8AC8280074FF0000A75
:1010C0003ED5A748001D016811F00C0F08D000683C
:1010D000C0F3810002280BD1D9F80000400207D4E8
:1010E0002868800716D5E068012800D112E033E1B6
:1010F000E068B8B10120C8F80000FFF7FBFD064624
:1011000005E000BFFFF7F6FD801B0228C0D8286865
:101110008007F7D52868216920F0F80040EAC1006F
:1011200028600DE0C8F800A0FFF7E4FD064604E0E3
:10113000FFF7E0FD801B02281FD828688007F7D43E
:101140002078000722D5864F87486169703771B1D2
:1011500001210160FFF7CEFD064604E0FFF7CAFD5E
:10116000801B022809D838688007F7D50EE0C0F840
:1011700000A0FFF7BFFD064605E082E0FFF7BAFDDD
:10118000801B02287DD838688007F7D42078400774
:1011900068D5DFF8CCB100270BF13C0BDBF8000081
:1011A000C0000BD4DBF8001041F08051CBF80010E8
:1011B000DBF80000012700F0805000906B4E306893
:1011C000C00510D4306840F480703060FFF792FDA5
:1011D000009005E0FFF78EFD0099401A022850D8D4
:1011E0003068C005F6D55E4EA0686C3601280FD079
:1011F0000528306810D020F001003060306820F001
:1012000004003060A068B8B1FFF774FD00900FE0F3
:10121000306840F00100F4E740F004003060F7E788
:10122000FFF768FD0099411A41F28830814266D883
:1012300030688007F4D50EE0FFF75CFD009007E012
:10124000FFF758FD0099411A41F28830814256D883
:1012500030688007F4D42FB1DBF8001021F0805102
:10126000CBF80010A069C8B33D49091D0968C1F356
:10127000810102294AD00228504607D0C8F86000F0
:1012800000E03CE0FFF736FD04463BE04746C8F887
:101290006000FFF72FFD064605E000BFFFF72AFDBF
:1012A000801B02282BD828688001F7D4D4E90701D5
:1012B0000843A16A2E4A490802EB0141626A41EAE9
:1012C0008211084394F82C1040EA0161C9F800101B
:1012D00001203866FFF70EFD044606E03EE000BF41
:1012E000FFF708FD001B022809D828688001F7D500
:1012F00034E000BFFFF7FEFC001B022802D90320E8
:10130000BDE8F88F28688001F4D427E00128F7D0E1
:10131000D9F80000E26900F4800191421CD1226AF0
:1013200000F03F01914217D147F6C071626A014057
:10133000B1EB821F10D1A26A4FF0FF3300F44031AD
:1013400003EB5202B1EB024F06D194F82C1000F0DF
:101350007060B0EB016F01D00120D1E70020CFE732
:101360000438024000004742800E474200700040AF
:101370000000FFFF10B5401EB0F1807F01D30120B7
:1013800010BD4FF0E02460610F21601700F07CFA7F
:101390000020A06107202061002010BD70B504006E
:1013A00004D094F83D00002510B106E0012070BD86
:1013B00084F83C50204600F023F8242084F83D00B7
:1013C0002068C16821F40051C160204600F088F90E
:1013D0002068016921F4904101612068416921F090
:1013E0002A0141612068C16841F40051C16025644F
:1013F000202084F83D0084F83E00002070BD0000ED
:10140000F0B587B0044614216846FEF723FF1A4959
:10141000206888422DD11948016841F4801101608B
:10142000006800F48010059014481038016841F0FD
:1014300004010160016801F004010591016841F0B7
:10144000080101600068022400F0080005904FF4D4
:1014500080500125032608278DE8F10069460848D9
:10146000FFF750FB04208DE8F10069460548FFF7BF
:1014700049FB07B0F0BD000000500040403802407A
:1014800000080240000C02402DE9F843044690F8A1
:101490003D001F4616460D4620284CD1C5B1BEB1B1
:1014A00094F83C00012846D0012084F83C004FF01D
:1014B0000008C4F84080212084F83D00FFF71AFCA2
:1014C000A6848146E684A068B0F5805F03D004E07E
:1014D0000120BDE8F883206928B12E465FF00005A1
:1014E00084F83C800EE00026FAE78021204600F0D8
:1014F0007DF9A0B9AEB116F8010B21684860E08C07
:10150000401EE084E08C4B464FF00002009700281C
:10151000EBD14FF04001204600F068F930B10320D4
:10152000D7E735F8020BC0F30800E6E7202084F87F
:101530003D000020CDE70220CBE7FEE71FB51B48AA
:1015400019494FF4403201600A2141600021816055
:10155000C0E903124FF400124261017641768176B0
:10156000C17601774177FFF746F908B1FEF7BDFE76
:1015700080204FF47C64CDE900400021684600F0F3
:10158000D3FC0394012102A8029400F057FF0748FE
:10159000FFF772FA02210548FEF7A9FE002801D0E4
:1015A000FEF7A3FE1FBD00000064004024000020E1
:1015B0000D4808B5016841F001010160016801F0C2
:1015C00001010091016841F004010160016801F02E
:1015D00004010091016841F008010160006800F019
:1015E0000800009008BD0000303802400C4810B5DB
:1015F0000A4901604FF4E1314160002181600C2211
:10160000C160C0E904128161C161FFF7C7FE002813
:1016100003D0BDE81040FEF768BE10BD005000408A
:101620004C000020FEE7FEE770477047FFF768BBFD
:1016300030B593B030216846FEF70CFE14210CA89B
:10164000FEF708FE1D480025016841F08051016049
:10165000006800F0805011901948016841F4804101
:1016600001600068022400F4804011900120039082
:1016700010200490009406940820CDE90750A02083
:10168000CDE9090404200B906846FFF7BDFC08B1C2
:1016900072B6FEE70CA90F2081E831004FF4A0508C
:1016A0000F904FF48050109005210CA8FFF7C2FB5B
:1016B000002801D072B6FEE713B030BD40380240BA
:1016C000007000400548016841F470010160034961
:1016D0004FF00060803908607047000088ED00E03E
:1016E00070B5044600680169E26821F44051114375
:1016F00001612169A068E2690843616911430843F7
:101700002168CA6849F20C639A430243CA602068A0
:101710004169A26921F44071114341613149206856
:10172000884202D03049884202D1FFF72DFC01E007
:10173000FFF71AFCE2690023192164253226B2F56D
:10174000004F626828D0A0FB0101930F9200FEF7C2
:1017500037FD0146B0FBF5F06FF01802504301EB86
:10176000800006EB0010B0FBF5F000F0F002B1FBDA
:10177000F5F002EB0012B1FBF5F06FF018035843DF
:1017800001EB800006EB0010B0FBF5F000F00F005D
:1017900021681044886070BDA0FB010192185B4174
:1017A000FEF70EFD0146B0FBF5F00201B1FBF5F0CE
:1017B0006FF01803584301EB800006EBC000B0FB4C
:1017C000F5F000F0F80002EB4002B1FBF5F05843F1
:1017D00001EB800006EBC000B0FBF5F000F0070065
:1017E000D6E7000000100140001401402DE9F0414F
:1017F000984617460E460446069D27E0681C25D0ED
:101800002DB1FFF777FAA0EB0800A8421ED9206897
:101810000C3050E8001F21F4D07140E80012002A7B
:10182000F5D12068143050E8001F21F0010140E894
:101830000012002AF5D1202084F83D0084F83E00F3
:10184000002084F83C000320BDE8F0812068006897
:1018500036EA000004D00020B842CFD00020F3E7E1
:101860000120F9E7FEE700000FB4054B10B503A90E
:10187000044A029800F028F810BC5DF814FB000040
:10188000B91B0008200000200907090E002804DB0E
:1018900000F1E02080F80014704700F00F0000F124
:1018A000E02080F8141D704702E008C8121F08C12C
:1018B000002AFAD170477047002001E001C1121FD1
:1018C000002AFBD1704700002DE9FF4F8DB09B46E9
:1018D0000F460446002606E025280BD05A460F99ED
:1018E0009047641C761C20780028F5D111B0304652
:1018F000BDE8F08F0025A8460122984900E0054385
:1019000014F8013F203B02FA03F00842F7D1207897
:101910002E2817D114F8010F45F004052A280ED0FF
:101920006FF02F022078A0F1300109290AD808EBC6
:10193000880102EB410100EB0108641CF2E757F853
:10194000048B641C20786C280DD004DC4C2812D049
:101950006A2811D104E074280DD07A280CD10AE04D
:1019600045F4001507E0617845F48015814202D105
:10197000641C05F58015641C2278692A45D008DCB2
:10198000002AB3D0582A69D0632A10D0642A08D11B
:101990003BE0702A67D0732A13D0752A5CD0782A6E
:1019A0005CD010465A460F999047761CD3E017F842
:1019B000040B8DF8000000208DF80100E94601209D
:1019C00003E057F8049B4FF0FF3069074FF0000524
:1019D00001D40AE06D1C45450DDA8542FADB19F8A1
:1019E00005100029F6D106E06D1C8542FCDB19F8D4
:1019F00005100029F8D12E4404E019F8010B5A46CD
:101A00000F9990476D1EF8D2A5E00A200021CDE97C
:101A10000801C5F3025002280DD001CFC117031EE3
:101A200071F100030DDA4FF0000CD0EB0C006CEB01
:101A300001012D2308E0FF1D27F00707F7E8020149
:101A4000EDE72B0504D52B238DF8283001233BE04F
:101A5000EB0739D02023F7E70A2000E0102000210F
:101A6000CDE9080107E01020002145F00405CDE98B
:101A700008014FF00808C5F3025002280FD001CF2B
:101A800000214FF0000A2B071FD5702A0DD0DDE989
:101A900008C38CF0100C5CEA030C0CD015E0FF1DA1
:101AA00027F00707F7E80201EBE740228DF828202E
:101AB0004FF0010A0BE050EA010306D030238DF805
:101AC00028308DF8292002239A46582A04D024A2CF
:101AD0000DF120090B9209E026A2F9E7DDE90823C0
:101AE000FEF76EFB0B9B9B5C09F8013D50EA01027F
:101AF000F4D1ADEB090020300890680701D44FF015
:101B000001080899884502DDA8EB010000E00020EB
:101B10008046002506E00AA85A46405D0F99904786
:101B20006D1C761C5545F6DB04E030205A460F99B3
:101B30009047761CB8F10001A8F10108F5DC05E03A
:101B400019F8010B5A460F999047761C0899481EC0
:101B500008900029F4DC641CC5E600000928010097
:101B60003031323334353637383961626364656613
:101B700000000000303132333435363738394142D5
:101B8000434445460000000070B504464FF6FF7020
:101B900000234AF201050CE014F8012B504000220A
:101BA000C6074FEA500000D06840521C082AF7DBF5
:101BB0005B1C8B42F0DB70BD13B54FF6FF73012247
:101BC00069460248FFF760FC00981CBD4C000020ED
:101BD000002070472DE9F0470E468446DDE90A7182
:101BE000DDE9089A00202C4D4FEA0008C0EBC00444
:101BF00005EB840494F8204034B1401C0228F5DB46
:101C00006FF00100BDE8F087C0EBC00005EB800479
:101C10002034F5D0BCF1050F32D286B3402E2FD23E
:101C20006AB3402A2CD2062B2AD247B339B30120FB
:101C3000207084F8018084F803C0A671E271B9F1C4
:101C4000000F20D0154A1078401C00F01F001070C3
:101C500060710520207121720A46394604F109009D
:101C6000FEF7DFFA72B6BAF1000F10D00A4804F19D
:101C70001401103000F017FE62B60020C2E7FFE743
:101C80004FF0FF30BEE784F805802371E3E704F1ED
:101C900014016869EEE7000004090020120000202A
:101CA00070B598B304791F4B002100BFC1EB4112FE
:101CB00002EBC20203EB420292F80152A54229D183
:101CC00092F80252C678B54224D192F800620578A3
:101CD000AE421FD1C1EB4115847905EBC50503EB7D
:101CE0004503E400A3F82442C37982F82832037A3A
:101CF00003EB83035B00A2F82632407A82F80302EA
:101D0000012082F82902022907DA09E0FFE74FF0F3
:101D1000FF3070BD491C0229C8DB6FF0010070BDA7
:101D2000002070BD90000020F0B587B00CAC94E8A6
:101D3000E000002404948DF810308DF81150082331
:101D400004ADCDE9025305948DF812608DF813703F
:101D5000009401940323FFF73DFF002805D00022E3
:101D60001146092000F08BFBA01E07B0F0BD00005B
:101D700070B5C0EB4011474A01EBC10102EB4104D1
:101D800040F22E2694F9031200290DDA94F8291254
:101D900051B194F8030284F8100231462046FEF750
:101DA00059FA6FF0020070BD94F82A120A31C9B2D4
:101DB00084F82A1294F8282291424ED3002584F800
:101DC0002A5294F81212C9B994F8231284F8061210
:101DD000491CC9B284F82312202902D3012184F8B6
:101DE0002312C4F80A52C4F80E52B4F81E22224438
:101DF0001368C4F80A325268C4F80E2294F800122C
:101E000094F806224907C90802F01F0241EA02318C
:101E100094F8012202F03F0241EA821194F8022272
:101E200002F03F02114341F00173024604F20A211D
:101E3000184600F0B7F890B194F81202401CC0B2F6
:101E400084F81202142808D931462046FEF702FA17
:101E5000002211460B2000F012FB002070BD84F818
:101E60001252B4F81E0202210830A4F81E02B4F87F
:101E70002002083080B2A4F82002B4F81E22B4F880
:101E80001C329A4203D2B4F824229042E5D384F85B
:101E90002C12E2E79000002070B5050010D0184821
:101EA000064600F0DDFC01006FF001000AD0E97881
:101EB000022901D0002905D11148183880691AE09B
:101EC0004FF0FF3070BD00BFA0F1140462788AB1FA
:101ED0006279AB789A420DD1E2798A420AD1A2792D
:101EE0002B799A4206D104F1140000F0C4FC0020C2
:101EF000207002E00068B042E6D1002070BD000012
:101F00001C09002010B5FFF719FB0648FEF746FD37
:101F10000448FEF760FB052801D0002010BD4FF0FB
:101F2000FF3010BD2400002010B58AB0012200232C
:101F30000792CDE905134168C1F34F310091446820
:101F4000042101EBC4040194046801EBC404240CD3
:101F500002940088089201EBC00080B2CDE903032F
:101F600069460448FEF73AFA08B1FEF7BEF90AB02E
:101F7000002010BD2400002010B50648FEF7B5FA79
:101F8000042801D0002010BD03A0FFF76DFC4FF026
:101F9000FF3010BD2400002043414E204255532005
:101FA0004F46460000B587B00190082004900420F9
:101FB0000290002003900A4800688068C0000CD599
:101FC0000A46042369460648FEF7A3F910B101202A
:101FD00007B000BD03A0FFF747FC0020F8E70000B2
:101FE00024000020BFD8D6C6C6F72DD3CACFE4320E
:101FF000CBCDB3C9B9A60D0A0000000030B587B03B
:10200000144C0190042002900020CDE903022068C6
:102010000D46806840011AD50A46012369462046CC
:10202000FEF777F980B12068806800010CD50223A3
:102030002A4669462046FEF76CF910B1012007B028
:1020400030BD05A0FFF710FC09A0FFF70DFC002034
:10205000F5E7000024000020BFD8D6C6C6F72DD370
:10206000CACFE431B7A2CBCDB3C9B9A60D0A0000DF
:10207000BFD8D6C6C6F72DD3CACFE430CBCDB3C9AF
:10208000B9A60D0A000000002DE9FF4700246FF0FB
:10209000010AA046DFF860900BE0022823D0032855
:1020A00021D0684600F018FB2046641CE4B20A28E0
:1020B0001DD86E46104800F0D3FBC0B1D9F800100F
:1020C0000E220D46A1F11007791C3046FEF7A9F843
:1020D00072B6284600F0CFFB87F8008062B69DF804
:1020E00001000128D9D1684600F012FADCE704B0FB
:1020F0005046BDE8F0870000180000207CB5C0EB1A
:1021000040102F4900EBC00001EB400440F22E25A7
:1021100094F82912002039B384F8290294F90312A3
:10212000012221B1022909D001290ED046E0C4F8CC
:102130001402C4F8180284F8192203E0A4F820025B
:10214000A4F8160284F82C2238E0082104F20A20B0
:10215000CDE9000194F8083294F8072294F80412AB
:102160000220FFF735FD1AE094F8181289B194F8AF
:102170001A2272B194F82212491C84F82212A4F88F
:10218000140284F81A0284F82C02C8B2032806D874
:1021900014E094F8190238B194F81B0270B1294682
:1021A0002046FEF757F809E041B929462046FEF7D8
:1021B00051F8002211460A2000F061F900207CBD90
:1021C000900000202DE9FE4F484C0778012594F837
:1021D00001C0AB1E64260179C2784FF000096FF090
:1021E0000108BC4517D194F803C08C4513D194F86D
:1021F00002C094450FD14A46B8B1A4F8162481789C
:10220000237B4FF4836ACF1A6FF00209012F1ED08F
:1022100001290CD00DE00095CDE90163202338465B
:10222000FFF782FD4046BDE8FE8F1846FBE71F2BF7
:102230000DD08DE86001A278E17860782023FFF767
:1022400073FD51462046FEF705F84846EBE721733B
:10225000278904F10F03F91850F8067F0F604068D2
:1022600048602089083020816089083080B2608110
:102270002789A1888F4228D31846FFF785FCE1887B
:1022800088421FD1A08804F10D03801C80B2009009
:10229000E278A178607800F0F5F878B16FF004008A
:1022A0000095CDE90160A278E17860782023FFF7FE
:1022B0003BFD51462046FDF7CDFF15E0CDE9005628
:1022C0000295F0E78DE86002EDE709490988884248
:1022D0000AD1628102200095CDE90160A278E178FF
:1022E00060782023FFF720FD00209CE7EC0400200D
:1022F00010000020FEB51B4C0025012623786A1E25
:10230000642153B10096CDE90112C27801790078B9
:102310002023FFF709FDA81EFEBD08B32670027832
:1023200062700279E270C278A27025812573827989
:102330006273C279A2730289202352BAA2804289B1
:1023400052BAE2800096CDE90115C2780179007891
:10235000FFF7EAFCC4F8145484F814640020FEBDAE
:102360001046FEBDEC0400207FB5002500950195C8
:1023700002950395FFF700FE104C002818DA6088DC
:1023800001210A3080B260802170B0F5FA7F11D34C
:10239000FFF7B8FD012250060DF10601FFF72EFEF2
:1023A00000221146012000F06AF800F09BF800E0DE
:1023B0002570658004B0002070BD0000140000206E
:1023C00070B50B461B4C00214FF4A07501EB410684
:1023D00014F836602EB1491CA942F7DB6FF00100FA
:1023E00070BD01EB410114EBC104F7D00BB1082A19
:1023F00002D94FF0FF3070BD01212170C0F382611E
:102400006170C0F34241A170C0F30431E170C0F3C8
:102410008511217100F03F006071A2711946E01D25
:10242000FDF7FFFE044804F11001406800F03BFA9C
:10243000002070BD600900201800002010B5FFF7D3
:1024400073FD10B16FF0010010BD00F04BF800F00B
:1024500031F9024800F022FA002010BD18000020D7
:1024600010B5FFF711FE00F09BF900F0C5F800F081
:102470006DF900F069F8BDE81040FFF775BF002066
:102480007047000070B51D4609A0049EFFF7ECF9E7
:102490000CA0FFF7E9F9002405E0295D10A0FFF783
:1024A000E3F9641CA4B2B442F7D9002070BD000067
:1024B000BDF8C8EBC1CBBBD8B5F7BAAFCAFD0D0AA2
:1024C00000000000B6E0D6A1BDD3CAD5BDE1CAF870
:1024D000A3ACB4AEBFDAB4F2D3A10D0A0000000081
:1024E0002578000010B54FF483610648FDF7B2FE71
:1024F00040F25C410448FDF7ADFE04494FF48070A2
:10250000088010BDEC040020900000201000002086
:1025100010B530B1C178022906D029B16FF00200A0
:1025200010BD4FF0FF3010BD4178012905D00229C0
:1025300006D0FFF7B5FB002010BDFFF7DBFEFAE782
:10254000FFF740FEF7E70000FEB50021284D01220D
:102550004FEA0103C1EB411000EBC00005EB400066
:1025600090F819426CB1B0F816420A34A4B2A0F83F
:102570001642B0F82662B44203D380F81B22A0F8BA
:10258000163290F818425CB1B0F814420A34A4B282
:10259000A0F81442642C03D380F81A22A0F8143255
:1025A000491C0229D6DB134C94F8140400281DD0D2
:1025B000B4F816040A3080B2A4F81604642815D9B9
:1025C00084F815246421CDE900216FF00300029006
:1025D000A278E17860782023FFF7A6FB03B02046BD
:1025E000BDE8F0404FF48361FDF734BEFEBD00004E
:1025F00090000020EC0400202DE9F04100262B4F34
:1026000035464FF0020800BFC5EB451000EBC00097
:1026100007EB400090F82D1251B390F82C0220B136
:10262000012836D002283BD137E0EAB2C2EB421093
:1026300000EBC00007EB400494F8000294F801128C
:102640004007C00801F03F0140EA811094F80212EF
:1026500001F03F0108431649084304F20A21FFF73D
:10266000A1FC94F8220220B184F82C82A4F8146210
:1026700016E0012084F8220284F82302A4F82062E4
:10268000A4F81E6284F81802A4F8146284F82C825C
:1026900006E0E8B2FFF76CFB02E0E8B2FFF72EFDC0
:1026A0006D1C022DB0DB0020BDE8F0819000002001
:1026B0000000020210B54FF460710648FDF7CAFD34
:1026C0000448103800F0EAF80248BDE81040083825
:1026D00000F0E4B8240900207FB504464378811D4A
:1026E00040792578E2782679042B02D0052B0ED08C
:1026F00021E0022A00D0F2B9CDE900103346294684
:102700000120FFF765FA2046FFF7C6FB1BE0022A0F
:1027100000D082B9002303900093CDE90131042356
:1027200031462846FFF756FA002804DA00221146FF
:102730000820FFF7A4FE607900902279E1782078E4
:10274000A31DFFF79FFE04B0002070BD2DE9F047E8
:102750001248074600F084F800281CD00F4E4FF0B6
:102760000008183EB46914E0A4F11405A8780A30F2
:10277000C0B2A87064280BD905F114008146AC6979
:1027800000F079F885F802804946706900F08BF80E
:102790002468BC42E8D1BDE8F08700001C09002095
:1027A0002DE9F04100262D4800F05AF8002837D0D6
:1027B0002A4D103D2C6914F8110C14F8101C400718
:1027C000C00801F0070140EA414014F80F1C14F85A
:1027D0000C2C01F01F0140EA013014F80E1C01F02E
:1027E0003F0140EA811014F80D1C01F03F0108433D
:1027F000A4F10B0140F00070143CFFF7FFFB88B11F
:1028000095F85800401CC0B285F85800142806D925
:10281000002285F8586011460B20FFF730FE01209A
:10282000BDE8F08104F1140085F85860074600F017
:1028300022F82079052801D02670F0E7A67060788C
:10284000401CC0B26070032804D23946E86900F029
:102850002AF8E4E726706670E1E70000140900201A
:102860000022002806D0016801E00968521C81425C
:10287000FBD11046704700280FD0416881420CD030
:102880000268824209D0002907D0002A05D00A60D8
:10289000D0E900124A6000F001B87047002801D06A
:1028A00040600060704700B502000AD0002908D0DF
:1028B0000846FFF7F3FF1068C1E9000210684160A5
:1028C000116000BD86B0182209A16846FDF7A9FC79
:1028D000FEF71EFAFEF7ACFEFEF76AFEFEF72EFECE
:1028E000FEF784FE0A20FEF7FBF8FFF7B9FDF9E7D3
:1028F000AA55AA54AA53AA52AA51AA50AA51AA52F6
:10290000AA53AA54AA5500000000000000000000CD
:102910000102030406070809000000000102030485
:10292000402900080000002024000000A81800082A
:1029300064290008240000203C2B0000B81800087F
:102940000100000010000000000000000024F4005E
:102950000001000000000000180000201800002006
:042960000000000073
:040000050800018965
:00000001FF
